{
  "contractName": "DominionDAO",
  "abi": [
    {
      "anonymous": false,
      "inputs": [
        {
          "indexed": true,
          "internalType": "address",
          "name": "initiator",
          "type": "address"
        },
        {
          "indexed": false,
          "internalType": "bytes32",
          "name": "role",
          "type": "bytes32"
        },
        {
          "indexed": false,
          "internalType": "string",
          "name": "message",
          "type": "string"
        },
        {
          "indexed": true,
          "internalType": "address",
          "name": "beneficiary",
          "type": "address"
        },
        {
          "indexed": false,
          "internalType": "uint256",
          "name": "amount",
          "type": "uint256"
        }
      ],
      "name": "Action",
      "type": "event"
    },
    {
      "anonymous": false,
      "inputs": [
        {
          "indexed": true,
          "internalType": "bytes32",
          "name": "role",
          "type": "bytes32"
        },
        {
          "indexed": true,
          "internalType": "bytes32",
          "name": "previousAdminRole",
          "type": "bytes32"
        },
        {
          "indexed": true,
          "internalType": "bytes32",
          "name": "newAdminRole",
          "type": "bytes32"
        }
      ],
      "name": "RoleAdminChanged",
      "type": "event"
    },
    {
      "anonymous": false,
      "inputs": [
        {
          "indexed": true,
          "internalType": "bytes32",
          "name": "role",
          "type": "bytes32"
        },
        {
          "indexed": true,
          "internalType": "address",
          "name": "account",
          "type": "address"
        },
        {
          "indexed": true,
          "internalType": "address",
          "name": "sender",
          "type": "address"
        }
      ],
      "name": "RoleGranted",
      "type": "event"
    },
    {
      "anonymous": false,
      "inputs": [
        {
          "indexed": true,
          "internalType": "bytes32",
          "name": "role",
          "type": "bytes32"
        },
        {
          "indexed": true,
          "internalType": "address",
          "name": "account",
          "type": "address"
        },
        {
          "indexed": true,
          "internalType": "address",
          "name": "sender",
          "type": "address"
        }
      ],
      "name": "RoleRevoked",
      "type": "event"
    },
    {
      "inputs": [],
      "name": "DEFAULT_ADMIN_ROLE",
      "outputs": [
        {
          "internalType": "bytes32",
          "name": "",
          "type": "bytes32"
        }
      ],
      "stateMutability": "view",
      "type": "function",
      "constant": true
    },
    {
      "inputs": [],
      "name": "daoBalance",
      "outputs": [
        {
          "internalType": "uint256",
          "name": "",
          "type": "uint256"
        }
      ],
      "stateMutability": "view",
      "type": "function",
      "constant": true
    },
    {
      "inputs": [
        {
          "internalType": "bytes32",
          "name": "role",
          "type": "bytes32"
        }
      ],
      "name": "getRoleAdmin",
      "outputs": [
        {
          "internalType": "bytes32",
          "name": "",
          "type": "bytes32"
        }
      ],
      "stateMutability": "view",
      "type": "function",
      "constant": true
    },
    {
      "inputs": [
        {
          "internalType": "bytes32",
          "name": "role",
          "type": "bytes32"
        },
        {
          "internalType": "address",
          "name": "account",
          "type": "address"
        }
      ],
      "name": "grantRole",
      "outputs": [],
      "stateMutability": "nonpayable",
      "type": "function"
    },
    {
      "inputs": [
        {
          "internalType": "bytes32",
          "name": "role",
          "type": "bytes32"
        },
        {
          "internalType": "address",
          "name": "account",
          "type": "address"
        }
      ],
      "name": "hasRole",
      "outputs": [
        {
          "internalType": "bool",
          "name": "",
          "type": "bool"
        }
      ],
      "stateMutability": "view",
      "type": "function",
      "constant": true
    },
    {
      "inputs": [
        {
          "internalType": "bytes32",
          "name": "role",
          "type": "bytes32"
        },
        {
          "internalType": "address",
          "name": "account",
          "type": "address"
        }
      ],
      "name": "renounceRole",
      "outputs": [],
      "stateMutability": "nonpayable",
      "type": "function"
    },
    {
      "inputs": [
        {
          "internalType": "bytes32",
          "name": "role",
          "type": "bytes32"
        },
        {
          "internalType": "address",
          "name": "account",
          "type": "address"
        }
      ],
      "name": "revokeRole",
      "outputs": [],
      "stateMutability": "nonpayable",
      "type": "function"
    },
    {
      "inputs": [
        {
          "internalType": "bytes4",
          "name": "interfaceId",
          "type": "bytes4"
        }
      ],
      "name": "supportsInterface",
      "outputs": [
        {
          "internalType": "bool",
          "name": "",
          "type": "bool"
        }
      ],
      "stateMutability": "view",
      "type": "function",
      "constant": true
    },
    {
      "inputs": [
        {
          "internalType": "string",
          "name": "title",
          "type": "string"
        },
        {
          "internalType": "string",
          "name": "description",
          "type": "string"
        },
        {
          "internalType": "address",
          "name": "beneficiary",
          "type": "address"
        },
        {
          "internalType": "uint256",
          "name": "amount",
          "type": "uint256"
        }
      ],
      "name": "createProposal",
      "outputs": [],
      "stateMutability": "nonpayable",
      "type": "function"
    },
    {
      "inputs": [
        {
          "internalType": "uint256",
          "name": "proposalId",
          "type": "uint256"
        },
        {
          "internalType": "bool",
          "name": "choosen",
          "type": "bool"
        }
      ],
      "name": "performVote",
      "outputs": [],
      "stateMutability": "nonpayable",
      "type": "function"
    },
    {
      "inputs": [
        {
          "internalType": "uint256",
          "name": "proposalId",
          "type": "uint256"
        }
      ],
      "name": "payBeneficiary",
      "outputs": [],
      "stateMutability": "nonpayable",
      "type": "function"
    },
    {
      "inputs": [],
      "name": "contribute",
      "outputs": [],
      "stateMutability": "payable",
      "type": "function",
      "payable": true
    },
    {
      "inputs": [],
      "name": "getProposals",
      "outputs": [
        {
          "components": [
            {
              "internalType": "uint256",
              "name": "id",
              "type": "uint256"
            },
            {
              "internalType": "uint256",
              "name": "amount",
              "type": "uint256"
            },
            {
              "internalType": "uint256",
              "name": "duration",
              "type": "uint256"
            },
            {
              "internalType": "uint256",
              "name": "upvotes",
              "type": "uint256"
            },
            {
              "internalType": "uint256",
              "name": "downvotes",
              "type": "uint256"
            },
            {
              "internalType": "string",
              "name": "title",
              "type": "string"
            },
            {
              "internalType": "string",
              "name": "description",
              "type": "string"
            },
            {
              "internalType": "bool",
              "name": "passed",
              "type": "bool"
            },
            {
              "internalType": "bool",
              "name": "paid",
              "type": "bool"
            },
            {
              "internalType": "address payable",
              "name": "beneficiary",
              "type": "address"
            },
            {
              "internalType": "address",
              "name": "proposer",
              "type": "address"
            },
            {
              "internalType": "address",
              "name": "executor",
              "type": "address"
            }
          ],
          "internalType": "struct DominionDAO.ProposalStruct[]",
          "name": "props",
          "type": "tuple[]"
        }
      ],
      "stateMutability": "view",
      "type": "function",
      "constant": true
    },
    {
      "inputs": [
        {
          "internalType": "uint256",
          "name": "proposalId",
          "type": "uint256"
        }
      ],
      "name": "getProposal",
      "outputs": [
        {
          "components": [
            {
              "internalType": "uint256",
              "name": "id",
              "type": "uint256"
            },
            {
              "internalType": "uint256",
              "name": "amount",
              "type": "uint256"
            },
            {
              "internalType": "uint256",
              "name": "duration",
              "type": "uint256"
            },
            {
              "internalType": "uint256",
              "name": "upvotes",
              "type": "uint256"
            },
            {
              "internalType": "uint256",
              "name": "downvotes",
              "type": "uint256"
            },
            {
              "internalType": "string",
              "name": "title",
              "type": "string"
            },
            {
              "internalType": "string",
              "name": "description",
              "type": "string"
            },
            {
              "internalType": "bool",
              "name": "passed",
              "type": "bool"
            },
            {
              "internalType": "bool",
              "name": "paid",
              "type": "bool"
            },
            {
              "internalType": "address payable",
              "name": "beneficiary",
              "type": "address"
            },
            {
              "internalType": "address",
              "name": "proposer",
              "type": "address"
            },
            {
              "internalType": "address",
              "name": "executor",
              "type": "address"
            }
          ],
          "internalType": "struct DominionDAO.ProposalStruct",
          "name": "",
          "type": "tuple"
        }
      ],
      "stateMutability": "view",
      "type": "function",
      "constant": true
    },
    {
      "inputs": [
        {
          "internalType": "uint256",
          "name": "proposalId",
          "type": "uint256"
        }
      ],
      "name": "getVotesOf",
      "outputs": [
        {
          "components": [
            {
              "internalType": "address",
              "name": "voter",
              "type": "address"
            },
            {
              "internalType": "uint256",
              "name": "timestamp",
              "type": "uint256"
            },
            {
              "internalType": "bool",
              "name": "choosen",
              "type": "bool"
            }
          ],
          "internalType": "struct DominionDAO.VotedStruct[]",
          "name": "",
          "type": "tuple[]"
        }
      ],
      "stateMutability": "view",
      "type": "function",
      "constant": true
    },
    {
      "inputs": [],
      "name": "getStakeholderVotes",
      "outputs": [
        {
          "internalType": "uint256[]",
          "name": "",
          "type": "uint256[]"
        }
      ],
      "stateMutability": "view",
      "type": "function",
      "constant": true
    },
    {
      "inputs": [],
      "name": "getStakeholderBalance",
      "outputs": [
        {
          "internalType": "uint256",
          "name": "",
          "type": "uint256"
        }
      ],
      "stateMutability": "view",
      "type": "function",
      "constant": true
    },
    {
      "inputs": [],
      "name": "isStakeholder",
      "outputs": [
        {
          "internalType": "bool",
          "name": "",
          "type": "bool"
        }
      ],
      "stateMutability": "view",
      "type": "function",
      "constant": true
    },
    {
      "inputs": [],
      "name": "getContributorBalance",
      "outputs": [
        {
          "internalType": "uint256",
          "name": "",
          "type": "uint256"
        }
      ],
      "stateMutability": "view",
      "type": "function",
      "constant": true
    },
    {
      "inputs": [],
      "name": "isContributor",
      "outputs": [
        {
          "internalType": "bool",
          "name": "",
          "type": "bool"
        }
      ],
      "stateMutability": "view",
      "type": "function",
      "constant": true
    },
    {
      "inputs": [],
      "name": "getBalance",
      "outputs": [
        {
          "internalType": "uint256",
          "name": "",
          "type": "uint256"
        }
      ],
      "stateMutability": "view",
      "type": "function",
      "constant": true
    }
  ],
  "bytecode": "0x6101006040527fa0bb1af1c90aa52ed052b92714ff0087008cc720049bf1af77cca2600b31e80c6080908152507ff4bb84e1768dd286358a736d195a0b228621173f655a73b89bf8b191ed0ba07d60a090815250670de0b6b3a764000060c090815250607863ffffffff1660e09063ffffffff1681525034801561008257600080fd5b50600160008190555060805160a05160c05160e051613e1061011860003960006110fd01526000611aa70152600081816105980152818161082901528181610ed901528181610fa50152818161118601528181611274015281816113ab0152818161163001528181611a2d01528181611b6b0152611d5d0152600081816109b801528181611b950152611c1a0152613e106000f3fe60806040526004361061012a5760003560e01c80637cdc2eb7116100ab578063bd9728161161006f578063bd972816146103f2578063c02146ac1461041d578063c7f758a814610448578063d547741f14610485578063d6cc8016146104ae578063d7bb99ba146104d95761012a565b80637cdc2eb71461030d57806391d1485414610336578063a217fddf14610373578063a22f1db71461039e578063b31f111c146103c95761012a565b806336568abe116100f257806336568abe146102265780633cdb48c21461024f57806362564c481461027a57806369a136dc146102a55780636a80d84d146102e25761012a565b806301ffc9a71461012f578063119c37c81461016c57806312065fe014610195578063248a9ca3146101c05780632f2ff15d146101fd575b600080fd5b34801561013b57600080fd5b5061015660048036038101906101519190612691565b6104e3565b60405161016391906126d9565b60405180910390f35b34801561017857600080fd5b50610193600480360381019061018e919061272a565b61055d565b005b3480156101a157600080fd5b506101aa610870565b6040516101b79190612766565b60405180910390f35b3480156101cc57600080fd5b506101e760048036038101906101e291906127b7565b6108b7565b6040516101f491906127f3565b60405180910390f35b34801561020957600080fd5b50610224600480360381019061021f919061286c565b6108d7565b005b34801561023257600080fd5b5061024d6004803603810190610248919061286c565b6108f8565b005b34801561025b57600080fd5b5061026461097b565b6040516102719190612766565b60405180910390f35b34801561028657600080fd5b5061028f610a66565b60405161029c9190612b57565b60405180910390f35b3480156102b157600080fd5b506102cc60048036038101906102c7919061272a565b610daf565b6040516102d99190612c6a565b60405180910390f35b3480156102ee57600080fd5b506102f7610e9c565b6040516103049190612766565b60405180910390f35b34801561031957600080fd5b50610334600480360381019061032f9190612dc1565b610f87565b005b34801561034257600080fd5b5061035d6004803603810190610358919061286c565b6111c5565b60405161036a91906126d9565b60405180910390f35b34801561037f57600080fd5b50610388611230565b60405161039591906127f3565b60405180910390f35b3480156103aa57600080fd5b506103b3611237565b6040516103c09190612f0f565b60405180910390f35b3480156103d557600080fd5b506103f060048036038101906103eb9190612f5d565b611370565b005b3480156103fe57600080fd5b50610407611670565b6040516104149190612766565b60405180910390f35b34801561042957600080fd5b50610432611676565b60405161043f91906126d9565b60405180910390f35b34801561045457600080fd5b5061046f600480360381019061046a919061272a565b6116bf565b60405161047c91906130a8565b60405180910390f35b34801561049157600080fd5b506104ac60048036038101906104a7919061286c565b61197b565b005b3480156104ba57600080fd5b506104c361199c565b6040516104d091906126d9565b60405180910390f35b6104e16119e5565b005b60007f7965db0b000000000000000000000000000000000000000000000000000000007bffffffffffffffffffffffffffffffffffffffffffffffffffffffff1916827bffffffffffffffffffffffffffffffffffffffffffffffffffffffff19161480610556575061055582611d95565b5b9050919050565b6040518060400160405280601f81526020017f556e617574686f72697a65643a205374616b65686f6c64657273206f6e6c79008152506105bd7f0000000000000000000000000000000000000000000000000000000000000000336111c5565b81906105ff576040517f08c379a00000000000000000000000000000000000000000000000000000000081526004016105f69190613114565b60405180910390fd5b50610608611dff565b600060046000848152602001908152602001600020905080600101546003541015610668576040517f08c379a000000000000000000000000000000000000000000000000000000000815260040161065f90613182565b60405180910390fd5b8060070160019054906101000a900460ff16156106ba576040517f08c379a00000000000000000000000000000000000000000000000000000000081526004016106b1906131ee565b60405180910390fd5b8060040154816003015411610704576040517f08c379a00000000000000000000000000000000000000000000000000000000081526004016106fb9061325a565b60405180910390fd5b60018160070160016101000a81548160ff021916908315150217905550338160090160006101000a81548173ffffffffffffffffffffffffffffffffffffffff021916908373ffffffffffffffffffffffffffffffffffffffff16021790555080600101546003600082825461077a91906132a9565b925050819055506107b38160070160029054906101000a900473ffffffffffffffffffffffffffffffffffffffff168260010154611e4e565b508060070160029054906101000a900473ffffffffffffffffffffffffffffffffffffffff1673ffffffffffffffffffffffffffffffffffffffff163373ffffffffffffffffffffffffffffffffffffffff167fa596782d699d74613fcbf59d33e720baabd313d6be9c95e2268f305430305eb77f0000000000000000000000000000000000000000000000000000000000000000846001015460405161085b929190613329565b60405180910390a35061086c611f06565b5050565b6000600760003373ffffffffffffffffffffffffffffffffffffffff1673ffffffffffffffffffffffffffffffffffffffff16815260200190815260200160002054905090565b600060016000838152602001908152602001600020600101549050919050565b6108e0826108b7565b6108e981611f10565b6108f38383611f24565b505050565b610900612004565b73ffffffffffffffffffffffffffffffffffffffff168173ffffffffffffffffffffffffffffffffffffffff161461096d576040517f08c379a0000000000000000000000000000000000000000000000000000000008152600401610964906133d7565b60405180910390fd5b610977828261200c565b5050565b60006040518060400160405280601f81526020017f556e617574686f72697a65643a20436f6e7472696275746f7273206f6e6c79008152506109dd7f0000000000000000000000000000000000000000000000000000000000000000336111c5565b8190610a1f576040517f08c379a0000000000000000000000000000000000000000000000000000000008152600401610a169190613114565b60405180910390fd5b50600760003373ffffffffffffffffffffffffffffffffffffffff1673ffffffffffffffffffffffffffffffffffffffff1681526020019081526020016000205491505090565b606060025467ffffffffffffffff811115610a8457610a83612c96565b5b604051908082528060200260200182016040528015610abd57816020015b610aaa61257e565b815260200190600190039081610aa25790505b50905060005b600254811015610dab5760046000828152602001908152602001600020604051806101800160405290816000820154815260200160018201548152602001600282015481526020016003820154815260200160048201548152602001600582018054610b2e90613426565b80601f0160208091040260200160405190810160405280929190818152602001828054610b5a90613426565b8015610ba75780601f10610b7c57610100808354040283529160200191610ba7565b820191906000526020600020905b815481529060010190602001808311610b8a57829003601f168201915b50505050508152602001600682018054610bc090613426565b80601f0160208091040260200160405190810160405280929190818152602001828054610bec90613426565b8015610c395780601f10610c0e57610100808354040283529160200191610c39565b820191906000526020600020905b815481529060010190602001808311610c1c57829003601f168201915b505050505081526020016007820160009054906101000a900460ff161515151581526020016007820160019054906101000a900460ff161515151581526020016007820160029054906101000a900473ffffffffffffffffffffffffffffffffffffffff1673ffffffffffffffffffffffffffffffffffffffff1673ffffffffffffffffffffffffffffffffffffffff1681526020016008820160009054906101000a900473ffffffffffffffffffffffffffffffffffffffff1673ffffffffffffffffffffffffffffffffffffffff1673ffffffffffffffffffffffffffffffffffffffff1681526020016009820160009054906101000a900473ffffffffffffffffffffffffffffffffffffffff1673ffffffffffffffffffffffffffffffffffffffff1673ffffffffffffffffffffffffffffffffffffffff1681525050828281518110610d8d57610d8c613457565b5b60200260200101819052508080610da390613486565b915050610ac3565b5090565b606060066000838152602001908152602001600020805480602002602001604051908101604052809291908181526020016000905b82821015610e9157838290600052602060002090600302016040518060600160405290816000820160009054906101000a900473ffffffffffffffffffffffffffffffffffffffff1673ffffffffffffffffffffffffffffffffffffffff1673ffffffffffffffffffffffffffffffffffffffff168152602001600182015481526020016002820160009054906101000a900460ff16151515158152505081526020019060010190610de4565b505050509050919050565b60006040518060400160405280601f81526020017f556e617574686f72697a65643a205374616b65686f6c64657273206f6e6c7900815250610efe7f0000000000000000000000000000000000000000000000000000000000000000336111c5565b8190610f40576040517f08c379a0000000000000000000000000000000000000000000000000000000008152600401610f379190613114565b60405180910390fd5b50600860003373ffffffffffffffffffffffffffffffffffffffff1673ffffffffffffffffffffffffffffffffffffffff1681526020019081526020016000205491505090565b6040518060600160405280602f8152602001613dac602f9139610fca7f0000000000000000000000000000000000000000000000000000000000000000336111c5565b819061100c576040517f08c379a00000000000000000000000000000000000000000000000000000000081526004016110039190613114565b60405180910390fd5b5060006002600081548092919061102290613486565b9190505590506000600460008381526020019081526020016000209050818160000181905550338160080160006101000a81548173ffffffffffffffffffffffffffffffffffffffff021916908373ffffffffffffffffffffffffffffffffffffffff1602179055508681600501908161109c919061367a565b50858160060190816110ae919061367a565b50848160070160026101000a81548173ffffffffffffffffffffffffffffffffffffffff021916908373ffffffffffffffffffffffffffffffffffffffff1602179055508381600101819055507f000000000000000000000000000000000000000000000000000000000000000063ffffffff164261112d919061374c565b81600201819055508473ffffffffffffffffffffffffffffffffffffffff163373ffffffffffffffffffffffffffffffffffffffff167fa596782d699d74613fcbf59d33e720baabd313d6be9c95e2268f305430305eb77f0000000000000000000000000000000000000000000000000000000000000000876040516111b49291906137cc565b60405180910390a350505050505050565b60006001600084815260200190815260200160002060000160008373ffffffffffffffffffffffffffffffffffffffff1673ffffffffffffffffffffffffffffffffffffffff16815260200190815260200160002060009054906101000a900460ff16905092915050565b6000801b81565b60606040518060400160405280601f81526020017f556e617574686f72697a65643a205374616b65686f6c64657273206f6e6c79008152506112997f0000000000000000000000000000000000000000000000000000000000000000336111c5565b81906112db576040517f08c379a00000000000000000000000000000000000000000000000000000000081526004016112d29190613114565b60405180910390fd5b50600560003373ffffffffffffffffffffffffffffffffffffffff1673ffffffffffffffffffffffffffffffffffffffff16815260200190815260200160002080548060200260200160405190810160405280929190818152602001828054801561136557602002820191906000526020600020905b815481526020019060010190808311611351575b505050505091505090565b6040518060400160405280601f81526020017f556e617574686f72697a65643a205374616b65686f6c64657273206f6e6c79008152506113d07f0000000000000000000000000000000000000000000000000000000000000000336111c5565b8190611412576040517f08c379a00000000000000000000000000000000000000000000000000000000081526004016114099190613114565b60405180910390fd5b506000600460008581526020019081526020016000209050611433816120ee565b82156114585780600301600081548092919061144e90613486565b9190505550611473565b80600401600081548092919061146d90613486565b91905055505b600560003373ffffffffffffffffffffffffffffffffffffffff1673ffffffffffffffffffffffffffffffffffffffff1681526020019081526020016000208490806001815401808255809150506001900390600052602060002001600090919091909150556006600085815260200190815260200160002060405180606001604052803373ffffffffffffffffffffffffffffffffffffffff168152602001428152602001851515815250908060018154018082558091505060019003906000526020600020906003020160009091909190915060008201518160000160006101000a81548173ffffffffffffffffffffffffffffffffffffffff021916908373ffffffffffffffffffffffffffffffffffffffff1602179055506020820151816001015560408201518160020160006101000a81548160ff02191690831515021790555050508060070160029054906101000a900473ffffffffffffffffffffffffffffffffffffffff1673ffffffffffffffffffffffffffffffffffffffff163373ffffffffffffffffffffffffffffffffffffffff167fa596782d699d74613fcbf59d33e720baabd313d6be9c95e2268f305430305eb77f00000000000000000000000000000000000000000000000000000000000000008460010154604051611662929190613854565b60405180910390a350505050565b60035481565b600080600860003373ffffffffffffffffffffffffffffffffffffffff1673ffffffffffffffffffffffffffffffffffffffff1681526020019081526020016000205411905090565b6116c761257e565b6004600083815260200190815260200160002060405180610180016040529081600082015481526020016001820154815260200160028201548152602001600382015481526020016004820154815260200160058201805461172890613426565b80601f016020809104026020016040519081016040528092919081815260200182805461175490613426565b80156117a15780601f10611776576101008083540402835291602001916117a1565b820191906000526020600020905b81548152906001019060200180831161178457829003601f168201915b505050505081526020016006820180546117ba90613426565b80601f01602080910402602001604051908101604052809291908181526020018280546117e690613426565b80156118335780601f1061180857610100808354040283529160200191611833565b820191906000526020600020905b81548152906001019060200180831161181657829003601f168201915b505050505081526020016007820160009054906101000a900460ff161515151581526020016007820160019054906101000a900460ff161515151581526020016007820160029054906101000a900473ffffffffffffffffffffffffffffffffffffffff1673ffffffffffffffffffffffffffffffffffffffff1673ffffffffffffffffffffffffffffffffffffffff1681526020016008820160009054906101000a900473ffffffffffffffffffffffffffffffffffffffff1673ffffffffffffffffffffffffffffffffffffffff1673ffffffffffffffffffffffffffffffffffffffff1681526020016009820160009054906101000a900473ffffffffffffffffffffffffffffffffffffffff1673ffffffffffffffffffffffffffffffffffffffff1673ffffffffffffffffffffffffffffffffffffffff16815250509050919050565b611984826108b7565b61198d81611f10565b611997838361200c565b505050565b600080600760003373ffffffffffffffffffffffffffffffffffffffff1673ffffffffffffffffffffffffffffffffffffffff1681526020019081526020016000205411905090565b60003411611a28576040517f08c379a0000000000000000000000000000000000000000000000000000000008152600401611a1f90613902565b60405180910390fd5b611a527f0000000000000000000000000000000000000000000000000000000000000000336111c5565b611c4657600034600760003373ffffffffffffffffffffffffffffffffffffffff1673ffffffffffffffffffffffffffffffffffffffff16815260200190815260200160002054611aa3919061374c565b90507f00000000000000000000000000000000000000000000000000000000000000008110611bbf5780600860003373ffffffffffffffffffffffffffffffffffffffff1673ffffffffffffffffffffffffffffffffffffffff1681526020019081526020016000208190555034600760003373ffffffffffffffffffffffffffffffffffffffff1673ffffffffffffffffffffffffffffffffffffffff1681526020019081526020016000206000828254611b5f919061374c565b92505081905550611b907f000000000000000000000000000000000000000000000000000000000000000033612282565b611bba7f000000000000000000000000000000000000000000000000000000000000000033612282565b611c40565b34600760003373ffffffffffffffffffffffffffffffffffffffff1673ffffffffffffffffffffffffffffffffffffffff1681526020019081526020016000206000828254611c0e919061374c565b92505081905550611c3f7f000000000000000000000000000000000000000000000000000000000000000033612282565b5b50611cf3565b34600760003373ffffffffffffffffffffffffffffffffffffffff1673ffffffffffffffffffffffffffffffffffffffff1681526020019081526020016000206000828254611c95919061374c565b9250508190555034600860003373ffffffffffffffffffffffffffffffffffffffff1673ffffffffffffffffffffffffffffffffffffffff1681526020019081526020016000206000828254611ceb919061374c565b925050819055505b3460036000828254611d05919061374c565b925050819055503073ffffffffffffffffffffffffffffffffffffffff163373ffffffffffffffffffffffffffffffffffffffff167fa596782d699d74613fcbf59d33e720baabd313d6be9c95e2268f305430305eb77f000000000000000000000000000000000000000000000000000000000000000034604051611d8b92919061396e565b60405180910390a3565b60007f01ffc9a7000000000000000000000000000000000000000000000000000000007bffffffffffffffffffffffffffffffffffffffffffffffffffffffff1916827bffffffffffffffffffffffffffffffffffffffffffffffffffffffff1916149050919050565b600260005403611e44576040517f08c379a0000000000000000000000000000000000000000000000000000000008152600401611e3b906139f6565b60405180910390fd5b6002600081905550565b6000808373ffffffffffffffffffffffffffffffffffffffff1683604051611e7590613a47565b60006040518083038185875af1925050503d8060008114611eb2576040519150601f19603f3d011682016040523d82523d6000602084013e611eb7565b606091505b5050905080611efb576040517f08c379a0000000000000000000000000000000000000000000000000000000008152600401611ef290613aa8565b60405180910390fd5b600191505092915050565b6001600081905550565b611f2181611f1c612004565b612290565b50565b611f2e82826111c5565b61200057600180600084815260200190815260200160002060000160008373ffffffffffffffffffffffffffffffffffffffff1673ffffffffffffffffffffffffffffffffffffffff16815260200190815260200160002060006101000a81548160ff021916908315150217905550611fa5612004565b73ffffffffffffffffffffffffffffffffffffffff168173ffffffffffffffffffffffffffffffffffffffff16837f2f8788117e7eff1d82e926ec794901d17c78024a50270940304540a733656f0d60405160405180910390a45b5050565b600033905090565b61201682826111c5565b156120ea5760006001600084815260200190815260200160002060000160008373ffffffffffffffffffffffffffffffffffffffff1673ffffffffffffffffffffffffffffffffffffffff16815260200190815260200160002060006101000a81548160ff02191690831515021790555061208f612004565b73ffffffffffffffffffffffffffffffffffffffff168173ffffffffffffffffffffffffffffffffffffffff16837ff6391f5c32d9c69d2a47ea670b442974b53935d1edc7fd64eb21e047a839171b60405160405180910390a45b5050565b8060070160009054906101000a900460ff168061210f575042816002015411155b1561216c5760018160070160006101000a81548160ff0219169083151502179055506040517f08c379a000000000000000000000000000000000000000000000000000000000815260040161216390613b3a565b60405180910390fd5b6000600560003373ffffffffffffffffffffffffffffffffffffffff1673ffffffffffffffffffffffffffffffffffffffff1681526020019081526020016000208054806020026020016040519081016040528092919081815260200182805480156121f757602002820191906000526020600020905b8154815260200190600101908083116121e3575b5050505050905060005b815181101561227d5781818151811061221d5761221c613457565b5b602002602001015183600001540361226a576040517f08c379a000000000000000000000000000000000000000000000000000000000815260040161226190613ba6565b60405180910390fd5b808061227590613486565b915050612201565b505050565b61228c8282611f24565b5050565b61229a82826111c5565b612311576122a781612315565b6122b58360001c6020612342565b6040516020016122c6929190613c9a565b6040516020818303038152906040526040517f08c379a00000000000000000000000000000000000000000000000000000000081526004016123089190613114565b60405180910390fd5b5050565b606061233b8273ffffffffffffffffffffffffffffffffffffffff16601460ff16612342565b9050919050565b6060600060028360026123559190613cd4565b61235f919061374c565b67ffffffffffffffff81111561237857612377612c96565b5b6040519080825280601f01601f1916602001820160405280156123aa5781602001600182028036833780820191505090505b5090507f3000000000000000000000000000000000000000000000000000000000000000816000815181106123e2576123e1613457565b5b60200101907effffffffffffffffffffffffffffffffffffffffffffffffffffffffffffff1916908160001a9053507f78000000000000000000000000000000000000000000000000000000000000008160018151811061244657612445613457565b5b60200101907effffffffffffffffffffffffffffffffffffffffffffffffffffffffffffff1916908160001a905350600060018460026124869190613cd4565b612490919061374c565b90505b6001811115612530577f3031323334353637383961626364656600000000000000000000000000000000600f8616601081106124d2576124d1613457565b5b1a60f81b8282815181106124e9576124e8613457565b5b60200101907effffffffffffffffffffffffffffffffffffffffffffffffffffffffffffff1916908160001a905350600485901c94508061252990613d16565b9050612493565b5060008414612574576040517f08c379a000000000000000000000000000000000000000000000000000000000815260040161256b90613d8b565b60405180910390fd5b8091505092915050565b60405180610180016040528060008152602001600081526020016000815260200160008152602001600081526020016060815260200160608152602001600015158152602001600015158152602001600073ffffffffffffffffffffffffffffffffffffffff168152602001600073ffffffffffffffffffffffffffffffffffffffff168152602001600073ffffffffffffffffffffffffffffffffffffffff1681525090565b6000604051905090565b600080fd5b600080fd5b60007fffffffff0000000000000000000000000000000000000000000000000000000082169050919050565b61266e81612639565b811461267957600080fd5b50565b60008135905061268b81612665565b92915050565b6000602082840312156126a7576126a661262f565b5b60006126b58482850161267c565b91505092915050565b60008115159050919050565b6126d3816126be565b82525050565b60006020820190506126ee60008301846126ca565b92915050565b6000819050919050565b612707816126f4565b811461271257600080fd5b50565b600081359050612724816126fe565b92915050565b6000602082840312156127405761273f61262f565b5b600061274e84828501612715565b91505092915050565b612760816126f4565b82525050565b600060208201905061277b6000830184612757565b92915050565b6000819050919050565b61279481612781565b811461279f57600080fd5b50565b6000813590506127b18161278b565b92915050565b6000602082840312156127cd576127cc61262f565b5b60006127db848285016127a2565b91505092915050565b6127ed81612781565b82525050565b600060208201905061280860008301846127e4565b92915050565b600073ffffffffffffffffffffffffffffffffffffffff82169050919050565b60006128398261280e565b9050919050565b6128498161282e565b811461285457600080fd5b50565b60008135905061286681612840565b92915050565b600080604083850312156128835761288261262f565b5b6000612891858286016127a2565b92505060206128a285828601612857565b9150509250929050565b600081519050919050565b600082825260208201905092915050565b6000819050602082019050919050565b6128e1816126f4565b82525050565b600081519050919050565b600082825260208201905092915050565b60005b83811015612921578082015181840152602081019050612906565b60008484015250505050565b6000601f19601f8301169050919050565b6000612949826128e7565b61295381856128f2565b9350612963818560208601612903565b61296c8161292d565b840191505092915050565b612980816126be565b82525050565b60006129918261280e565b9050919050565b6129a181612986565b82525050565b6129b08161282e565b82525050565b6000610180830160008301516129cf60008601826128d8565b5060208301516129e260208601826128d8565b5060408301516129f560408601826128d8565b506060830151612a0860608601826128d8565b506080830151612a1b60808601826128d8565b5060a083015184820360a0860152612a33828261293e565b91505060c083015184820360c0860152612a4d828261293e565b91505060e0830151612a6260e0860182612977565b50610100830151612a77610100860182612977565b50610120830151612a8c610120860182612998565b50610140830151612aa16101408601826129a7565b50610160830151612ab66101608601826129a7565b508091505092915050565b6000612acd83836129b6565b905092915050565b6000602082019050919050565b6000612aed826128ac565b612af781856128b7565b935083602082028501612b09856128c8565b8060005b85811015612b455784840389528151612b268582612ac1565b9450612b3183612ad5565b925060208a01995050600181019050612b0d565b50829750879550505050505092915050565b60006020820190508181036000830152612b718184612ae2565b905092915050565b600081519050919050565b600082825260208201905092915050565b6000819050602082019050919050565b606082016000820151612bbb60008501826129a7565b506020820151612bce60208501826128d8565b506040820151612be16040850182612977565b50505050565b6000612bf38383612ba5565b60608301905092915050565b6000602082019050919050565b6000612c1782612b79565b612c218185612b84565b9350612c2c83612b95565b8060005b83811015612c5d578151612c448882612be7565b9750612c4f83612bff565b925050600181019050612c30565b5085935050505092915050565b60006020820190508181036000830152612c848184612c0c565b905092915050565b600080fd5b600080fd5b7f4e487b7100000000000000000000000000000000000000000000000000000000600052604160045260246000fd5b612cce8261292d565b810181811067ffffffffffffffff82111715612ced57612cec612c96565b5b80604052505050565b6000612d00612625565b9050612d0c8282612cc5565b919050565b600067ffffffffffffffff821115612d2c57612d2b612c96565b5b612d358261292d565b9050602081019050919050565b82818337600083830152505050565b6000612d64612d5f84612d11565b612cf6565b905082815260208101848484011115612d8057612d7f612c91565b5b612d8b848285612d42565b509392505050565b600082601f830112612da857612da7612c8c565b5b8135612db8848260208601612d51565b91505092915050565b60008060008060808587031215612ddb57612dda61262f565b5b600085013567ffffffffffffffff811115612df957612df8612634565b5b612e0587828801612d93565b945050602085013567ffffffffffffffff811115612e2657612e25612634565b5b612e3287828801612d93565b9350506040612e4387828801612857565b9250506060612e5487828801612715565b91505092959194509250565b600081519050919050565b600082825260208201905092915050565b6000819050602082019050919050565b6000612e9883836128d8565b60208301905092915050565b6000602082019050919050565b6000612ebc82612e60565b612ec68185612e6b565b9350612ed183612e7c565b8060005b83811015612f02578151612ee98882612e8c565b9750612ef483612ea4565b925050600181019050612ed5565b5085935050505092915050565b60006020820190508181036000830152612f298184612eb1565b905092915050565b612f3a816126be565b8114612f4557600080fd5b50565b600081359050612f5781612f31565b92915050565b60008060408385031215612f7457612f7361262f565b5b6000612f8285828601612715565b9250506020612f9385828601612f48565b9150509250929050565b600061018083016000830151612fb660008601826128d8565b506020830151612fc960208601826128d8565b506040830151612fdc60408601826128d8565b506060830151612fef60608601826128d8565b50608083015161300260808601826128d8565b5060a083015184820360a086015261301a828261293e565b91505060c083015184820360c0860152613034828261293e565b91505060e083015161304960e0860182612977565b5061010083015161305e610100860182612977565b50610120830151613073610120860182612998565b506101408301516130886101408601826129a7565b5061016083015161309d6101608601826129a7565b508091505092915050565b600060208201905081810360008301526130c28184612f9d565b905092915050565b600082825260208201905092915050565b60006130e6826128e7565b6130f081856130ca565b9350613100818560208601612903565b6131098161292d565b840191505092915050565b6000602082019050818103600083015261312e81846130db565b905092915050565b7f496e73756666696369656e742066756e64730000000000000000000000000000600082015250565b600061316c6012836130ca565b915061317782613136565b602082019050919050565b6000602082019050818103600083015261319b8161315f565b9050919050565b7f50726f706f73616c2068617320616c7265616479206265656e20706169640000600082015250565b60006131d8601e836130ca565b91506131e3826131a2565b602082019050919050565b60006020820190508181036000830152613207816131cb565b9050919050565b7f50726f706f73616c20686173206e6f74206265656e2070617373656400000000600082015250565b6000613244601c836130ca565b915061324f8261320e565b602082019050919050565b6000602082019050818103600083015261327381613237565b9050919050565b7f4e487b7100000000000000000000000000000000000000000000000000000000600052601160045260246000fd5b60006132b4826126f4565b91506132bf836126f4565b92508282039050818111156132d7576132d661327a565b5b92915050565b7f504149442042454e454649434941525900000000000000000000000000000000600082015250565b60006133136010836130ca565b915061331e826132dd565b602082019050919050565b600060608201905061333e60008301856127e4565b818103602083015261334f81613306565b905061335e6040830184612757565b9392505050565b7f416363657373436f6e74726f6c3a2063616e206f6e6c792072656e6f756e636560008201527f20726f6c657320666f722073656c660000000000000000000000000000000000602082015250565b60006133c1602f836130ca565b91506133cc82613365565b604082019050919050565b600060208201905081810360008301526133f0816133b4565b9050919050565b7f4e487b7100000000000000000000000000000000000000000000000000000000600052602260045260246000fd5b6000600282049050600182168061343e57607f821691505b602082108103613451576134506133f7565b5b50919050565b7f4e487b7100000000000000000000000000000000000000000000000000000000600052603260045260246000fd5b6000613491826126f4565b91507fffffffffffffffffffffffffffffffffffffffffffffffffffffffffffffffff82036134c3576134c261327a565b5b600182019050919050565b60008190508160005260206000209050919050565b60006020601f8301049050919050565b600082821b905092915050565b6000600883026135307fffffffffffffffffffffffffffffffffffffffffffffffffffffffffffffffff826134f3565b61353a86836134f3565b95508019841693508086168417925050509392505050565b6000819050919050565b600061357761357261356d846126f4565b613552565b6126f4565b9050919050565b6000819050919050565b6135918361355c565b6135a561359d8261357e565b848454613500565b825550505050565b600090565b6135ba6135ad565b6135c5818484613588565b505050565b5b818110156135e9576135de6000826135b2565b6001810190506135cb565b5050565b601f82111561362e576135ff816134ce565b613608846134e3565b81016020851015613617578190505b61362b613623856134e3565b8301826135ca565b50505b505050565b600082821c905092915050565b600061365160001984600802613633565b1980831691505092915050565b600061366a8383613640565b9150826002028217905092915050565b613683826128e7565b67ffffffffffffffff81111561369c5761369b612c96565b5b6136a68254613426565b6136b18282856135ed565b600060209050601f8311600181146136e457600084156136d2578287015190505b6136dc858261365e565b865550613744565b601f1984166136f2866134ce565b60005b8281101561371a578489015182556001820191506020850194506020810190506136f5565b868310156137375784890151613733601f891682613640565b8355505b6001600288020188555050505b505050505050565b6000613757826126f4565b9150613762836126f4565b925082820190508082111561377a5761377961327a565b5b92915050565b7f50524f504f53414c205241495345440000000000000000000000000000000000600082015250565b60006137b6600f836130ca565b91506137c182613780565b602082019050919050565b60006060820190506137e160008301856127e4565b81810360208301526137f2816137a9565b90506138016040830184612757565b9392505050565b7f564f544544204f4e2050524f504f53414c000000000000000000000000000000600082015250565b600061383e6011836130ca565b915061384982613808565b602082019050919050565b600060608201905061386960008301856127e4565b818103602083015261387a81613831565b90506138896040830184612757565b9392505050565b7f436f6e747269627574696f6e206d75737420626520677265617465722074686160008201527f6e20300000000000000000000000000000000000000000000000000000000000602082015250565b60006138ec6023836130ca565b91506138f782613890565b604082019050919050565b6000602082019050818103600083015261391b816138df565b9050919050565b7f434f4e545249425554494f4e2052454345495645440000000000000000000000600082015250565b60006139586015836130ca565b915061396382613922565b602082019050919050565b600060608201905061398360008301856127e4565b81810360208301526139948161394b565b90506139a36040830184612757565b9392505050565b7f5265656e7472616e637947756172643a207265656e7472616e742063616c6c00600082015250565b60006139e0601f836130ca565b91506139eb826139aa565b602082019050919050565b60006020820190508181036000830152613a0f816139d3565b9050919050565b600081905092915050565b50565b6000613a31600083613a16565b9150613a3c82613a21565b600082019050919050565b6000613a5282613a24565b9150819050919050565b7f5472616e73666572206661696c65642e00000000000000000000000000000000600082015250565b6000613a926010836130ca565b9150613a9d82613a5c565b602082019050919050565b60006020820190508181036000830152613ac181613a85565b9050919050565b7f50726f706f73616c2068617320616c7265616479206265656e2070617373656460008201527f206f722065787069726564000000000000000000000000000000000000000000602082015250565b6000613b24602b836130ca565b9150613b2f82613ac8565b604082019050919050565b60006020820190508181036000830152613b5381613b17565b9050919050565b7f446f75626c6520766f74696e67206973206e6f7420616c6c6f77656400000000600082015250565b6000613b90601c836130ca565b9150613b9b82613b5a565b602082019050919050565b60006020820190508181036000830152613bbf81613b83565b9050919050565b600081905092915050565b7f416363657373436f6e74726f6c3a206163636f756e7420000000000000000000600082015250565b6000613c07601783613bc6565b9150613c1282613bd1565b601782019050919050565b6000613c28826128e7565b613c328185613bc6565b9350613c42818560208601612903565b80840191505092915050565b7f206973206d697373696e6720726f6c6520000000000000000000000000000000600082015250565b6000613c84601183613bc6565b9150613c8f82613c4e565b601182019050919050565b6000613ca582613bfa565b9150613cb18285613c1d565b9150613cbc82613c77565b9150613cc88284613c1d565b91508190509392505050565b6000613cdf826126f4565b9150613cea836126f4565b9250828202613cf8816126f4565b91508282048414831517613d0f57613d0e61327a565b5b5092915050565b6000613d21826126f4565b915060008203613d3457613d3361327a565b5b600182039050919050565b7f537472696e67733a20686578206c656e67746820696e73756666696369656e74600082015250565b6000613d756020836130ca565b9150613d8082613d3f565b602082019050919050565b60006020820190508181036000830152613da481613d68565b905091905056fe50726f706f73616c204372656174696f6e20416c6c6f77656420666f72205374616b65686f6c64657273206f6e6c79a2646970667358221220158ee32aeefc41bf1588c186aca102dacef8f7dd5c99fd5c5dacdf24a49ab00a64736f6c63430008110033",
  "immutableReferences": {
    "1724": [
      {
        "length": 32,
        "start": 2488
      },
      {
        "length": 32,
        "start": 7061
      },
      {
        "length": 32,
        "start": 7194
      }
    ],
    "1729": [
      {
        "length": 32,
        "start": 1432
      },
      {
        "length": 32,
        "start": 2089
      },
      {
        "length": 32,
        "start": 3801
      },
      {
        "length": 32,
        "start": 4005
      },
      {
        "length": 32,
        "start": 4486
      },
      {
        "length": 32,
        "start": 4724
      },
      {
        "length": 32,
        "start": 5035
      },
      {
        "length": 32,
        "start": 5680
      },
      {
        "length": 32,
        "start": 6701
      },
      {
        "length": 32,
        "start": 7019
      },
      {
        "length": 32,
        "start": 7517
      }
    ],
    "1732": [
      {
        "length": 32,
        "start": 6823
      }
    ],
    "1735": [
      {
        "length": 32,
        "start": 4349
      }
    ]
  },
  "source": "// SPDX-License-Identifier: SEE LICENSE IN LICENSE\npragma solidity ^0.8.17;\n\nimport \"@openzeppelin/contracts/access/AccessControl.sol\";\nimport \"@openzeppelin/contracts/security/ReentrancyGuard.sol\";\n\ncontract DominionDAO is ReentrancyGuard, AccessControl {\n    bytes32 private immutable CONTRIBUTOR_ROLE = keccak256(\"CONTRIBUTOR\");\n    bytes32 private immutable STAKEHOLDER_ROLE = keccak256(\"STAKEHOLDER\");\n    uint256 immutable MIN_STAKEHOLDER_CONTRIBUTION = 1 ether;\n    uint32 immutable MIN_VOTE_DURATION = 2 minutes;\n    uint256 totalProposals;\n    uint256 public daoBalance;\n\n    mapping(uint256 => ProposalStruct) private raisedProposals;\n    mapping(address => uint256[]) private stakeholderVotes;\n    mapping(uint256 => VotedStruct[]) private votedOn;\n    mapping(address => uint256) private contributors;\n    mapping(address => uint256) private stakeholders;\n\n    struct ProposalStruct {\n        uint256 id;\n        uint256 amount;\n        uint256 duration;\n        uint256 upvotes;\n        uint256 downvotes;\n        string title;\n        string description;\n        bool passed;\n        bool paid;\n        address payable beneficiary;\n        address proposer;\n        address executor;\n    }\n\n    struct VotedStruct {\n        address voter;\n        uint256 timestamp;\n        bool choosen;\n    }\n\n    event Action(\n        address indexed initiator,\n        bytes32 role,\n        string message,\n        address indexed beneficiary,\n        uint256 amount\n    );\n\n    modifier stakeholderOnly(string memory message) {\n        require(hasRole(STAKEHOLDER_ROLE, msg.sender), message);\n        _;\n    }\n\n    modifier contributorOnly(string memory message) {\n        require(hasRole(CONTRIBUTOR_ROLE, msg.sender), message);\n        _;\n    }\n\n    function createProposal(\n        string memory title,\n        string memory description,\n        address beneficiary,\n        uint256 amount\n    )\n        public\n        stakeholderOnly(\"Proposal Creation Allowed for Stakeholders only\")\n    {\n        uint256 proposalId = totalProposals++;\n        ProposalStruct storage proposal = raisedProposals[proposalId];\n\n        proposal.id = proposalId;\n        proposal.proposer = payable(msg.sender);\n        proposal.title = title;\n        proposal.description = description;\n        proposal.beneficiary = payable(beneficiary);\n        proposal.amount = amount;\n        proposal.duration = block.timestamp + MIN_VOTE_DURATION;\n\n        emit Action(\n            msg.sender,\n            STAKEHOLDER_ROLE,\n            \"PROPOSAL RAISED\",\n            beneficiary,\n            amount\n        );\n    }\n\n    function performVote(\n        uint256 proposalId,\n        bool choosen\n    ) public stakeholderOnly(\"Unauthorized: Stakeholders only\") {\n        ProposalStruct storage proposal = raisedProposals[proposalId];\n        handleVoting(proposal);\n\n        if (choosen) proposal.upvotes++;\n        else proposal.downvotes++;\n\n        stakeholderVotes[msg.sender].push(proposalId);\n\n        votedOn[proposalId].push(\n            VotedStruct(msg.sender, block.timestamp, choosen)\n        );\n\n        emit Action(\n            msg.sender,\n            STAKEHOLDER_ROLE,\n            \"VOTED ON PROPOSAL\",\n            proposal.beneficiary,\n            proposal.amount\n        );\n    }\n\n    function handleVoting(ProposalStruct storage proposal) private {\n        if (proposal.passed || proposal.duration <= block.timestamp) {\n            proposal.passed = true;\n            revert(\"Proposal has already been passed or expired\");\n        }\n\n        uint256[] memory tempVotes = stakeholderVotes[msg.sender];\n        for (uint256 votes = 0; votes < tempVotes.length; votes++) {\n            if (proposal.id == tempVotes[votes]) {\n                revert(\"Double voting is not allowed\");\n            }\n        }\n    }\n\n    function payBeneficiary(\n        uint256 proposalId\n    ) public stakeholderOnly(\"Unauthorized: Stakeholders only\") nonReentrant {\n        ProposalStruct storage proposal = raisedProposals[proposalId];\n        require(daoBalance >= proposal.amount, \"Insufficient funds\");\n\n        if (proposal.paid) revert(\"Proposal has already been paid\");\n\n        if (proposal.upvotes <= proposal.downvotes) {\n            revert(\"Proposal has not been passed\");\n        }\n\n        proposal.paid = true;\n        proposal.executor = msg.sender;\n        daoBalance -= proposal.amount;\n\n        payTo(proposal.beneficiary, proposal.amount);\n\n        emit Action(\n            msg.sender,\n            STAKEHOLDER_ROLE,\n            \"PAID BENEFICIARY\",\n            proposal.beneficiary,\n            proposal.amount\n        );\n    }\n\n    function contribute() public payable {\n        require(msg.value > 0 ether, \"Contribution must be greater than 0\");\n        if (!hasRole(STAKEHOLDER_ROLE, msg.sender)) {\n            uint256 totalContribution = contributors[msg.sender] + msg.value;\n\n            if (totalContribution >= MIN_STAKEHOLDER_CONTRIBUTION) {\n                stakeholders[msg.sender] = totalContribution;\n                contributors[msg.sender] += msg.value;\n                _setupRole(STAKEHOLDER_ROLE, msg.sender);\n                _setupRole(CONTRIBUTOR_ROLE, msg.sender);\n            } else {\n                contributors[msg.sender] += msg.value;\n                _setupRole(CONTRIBUTOR_ROLE, msg.sender);\n            }\n        } else {\n            contributors[msg.sender] += msg.value;\n            stakeholders[msg.sender] += msg.value;\n        }\n\n        daoBalance += msg.value;\n\n        emit Action(\n            msg.sender,\n            STAKEHOLDER_ROLE,\n            \"CONTRIBUTION RECEIVED\",\n            address(this),\n            msg.value\n        );\n    }\n\n    function getProposals()\n        public\n        view\n        returns (ProposalStruct[] memory props)\n    {\n        props = new ProposalStruct[](totalProposals);\n\n        for (uint256 i = 0; i < totalProposals; i++) {\n            props[i] = raisedProposals[i];\n        }\n    }\n\n    function getProposal(\n        uint256 proposalId\n    ) public view returns (ProposalStruct memory) {\n        return raisedProposals[proposalId];\n    }\n\n    function getVotesOf(\n        uint256 proposalId\n    ) public view returns (VotedStruct[] memory) {\n        return votedOn[proposalId];\n    }\n\n    function getStakeholderVotes()\n        public\n        view\n        stakeholderOnly(\"Unauthorized: Stakeholders only\")\n        returns (uint256[] memory)\n    {\n        return stakeholderVotes[msg.sender];\n    }\n\n    function getStakeholderBalance()\n        public\n        view\n        stakeholderOnly(\"Unauthorized: Stakeholders only\")\n        returns (uint256)\n    {\n        return stakeholders[msg.sender];\n    }\n\n    function isStakeholder() public view returns (bool) {\n        return stakeholders[msg.sender] > 0;\n    }\n\n    function getContributorBalance()\n        public\n        view\n        contributorOnly(\"Unauthorized: Contributors only\")\n        returns (uint256)\n    {\n        return contributors[msg.sender];\n    }\n\n    function isContributor() public view returns (bool) {\n        return contributors[msg.sender] > 0;\n    }\n\n    function getBalance() external view returns (uint256) {\n        return contributors[msg.sender];\n    }\n\n    function payTo(address to, uint256 amount) internal returns (bool) {\n        (bool success, ) = payable(to).call{value: amount}(\"\");\n        require(success, \"Transfer failed.\");\n        return true;\n    }\n}\n",
  "sourcePath": "/Volumes/extreme/Projects/Solidity/Youtube/dapp-mentors/dao/tailwind_truffle_starter_kit/src/contracts/DominionDAO.sol",
  "compiler": {
    "name": "solc",
    "version": "0.8.17+commit.8df45f5f.Emscripten.clang"
  },
  "schemaVersion": "3.4.4",
  "updatedAt": "2023-06-25T09:46:29.560Z",
  "networkType": "ethereum",
  "devdoc": {
    "kind": "dev",
    "methods": {
      "getRoleAdmin(bytes32)": {
        "details": "Returns the admin role that controls `role`. See {grantRole} and {revokeRole}. To change a role's admin, use {_setRoleAdmin}."
      },
      "grantRole(bytes32,address)": {
        "details": "Grants `role` to `account`. If `account` had not been already granted `role`, emits a {RoleGranted} event. Requirements: - the caller must have ``role``'s admin role. May emit a {RoleGranted} event."
      },
      "hasRole(bytes32,address)": {
        "details": "Returns `true` if `account` has been granted `role`."
      },
      "renounceRole(bytes32,address)": {
        "details": "Revokes `role` from the calling account. Roles are often managed via {grantRole} and {revokeRole}: this function's purpose is to provide a mechanism for accounts to lose their privileges if they are compromised (such as when a trusted device is misplaced). If the calling account had been revoked `role`, emits a {RoleRevoked} event. Requirements: - the caller must be `account`. May emit a {RoleRevoked} event."
      },
      "revokeRole(bytes32,address)": {
        "details": "Revokes `role` from `account`. If `account` had been granted `role`, emits a {RoleRevoked} event. Requirements: - the caller must have ``role``'s admin role. May emit a {RoleRevoked} event."
      },
      "supportsInterface(bytes4)": {
        "details": "See {IERC165-supportsInterface}."
      }
    },
    "version": 1
  },
  "userdoc": {
    "kind": "user",
    "methods": {},
    "version": 1
  }
}